S00E00004D75785365672E73726563BD
S11300000C945C000C9479000C9479000C947900A5
S11300100C9479000C9479000C9479000C94790078
S11300200C9479000C9479000C9479000C94790068
S11300300C9479000C9479000C9479000C94790058
S11300400C9479000C9479000C9479000C94790048
S11300500C9479000C9479000C9479000C94790038
S11300600C9479000C947900A004FF041001480159
S11300708201BC01F60130025C029602D0020A033E
S1130080FF04FF04FF04FF04FF04FF04FF04440310
S11300907E03B8036604F203FF04FF04FF04FF04B5
S11300A0FF04FF04FF04FF04FF04FF04FF04FF0434
S11300B0FF04FF04FF042C0411241FBECFEFD8E07B
S11300C0DEBFCDBF11E0A0E0B1E0EAE5F7E102C098
S11300D005900D92AC32B107D9F722E0ACE2B1E061
S11300E001C01D92A63BB207E1F70E947B000C946D
S11300F0AB0B0C940000CF93DF93CDB7DEB76497BE
S11301000FB6F894DEBF0FBECDBF27E044E061E137
S113011080E391E00E94C1008BE0682E90E0C92E3C
S113012091E0D92E7E018BE0E80EF11C21E4722EC1
S113013031E3832E42EC942E5FE8A52E06E011E015
S113014063E0B62E1F926F92DF92CF92FF92EF92EE
S11301500E94C10863E071E0CE0101960E94BA08D2
S11301607F928F929F92AF921F930F93BF920E94A0
S11301704D080E9413050FB6F894DEBF0FBECDBF25
S1130180E1CFFC0184B1806E84B9DF01A25EBE4F71
S11301906C9311964C9311962C93119687E08C9343
S11301A08CEF80838CE0818389ED82838DE9838366
S11301B08DE2848385EB858385EF86838CE1878359
S11301C08DEF80878DEB81878DE7828785EE83872E
S11301D080EF848781EF85878CEE86878DEC878717
S11301E0108A0895DF92EF92FF920F931F93CF939B
S11301F0DF93DC01C1E021E030E08FEF8C0F90E071
S1130200FD01E80FF91FE4894E2F50E0FA01BE9773
S1130210E832F10508F0F3C3EC5CFF4F0C949A0844
S11302206C9170E040E050E08C01E4E0000F111F9D
S1130230EA95E1F7F901042E02C0EE0FFF1F0A94BC
S1130240E2F7E623F723EF2B51F0F801E40FF51F53
S11302503F96EE0FFF1FEA0FFB1F31832083FB0144
S1130260042E02C0F595E7950A94E2F7E0FD0AC072
S1130270F801E40FF51F3F96EE0FFF1FEA0FFB1F77
S1130280118210824F5F5F4F4830510599F6B7C312
S113029011966C91119770E040E050E08C01E4E01D
S11302A0000F111FEA95E1F7F901042E02C0EE0FC9
S11302B0FF1F0A94E2F7E623F723EF2B51F0F8012E
S11302C0E40FF51F3F96EE0FFF1FEA0FFB1F31836C
S11302D02083FB01042E02C0F595E7950A94E2F70A
S11302E0E0FD0AC0F801E40FF51F3F96EE0FFF1F73
S11302F0EA0FFB1F118210824F5F5F4F4830510598
S113030099F67DC312966C91129770E040E050E02C
S11303108C01E4E0000F111FEA95E1F7F901042EC6
S113032002C0EE0FFF1F0A94E2F7E623F723EF2B38
S113033051F0F801E40FF51F3F96EE0FFF1FEA0F8F
S1130340FB1F31832083FB01042E02C0F595E79542
S11303500A94E2F7E0FD0AC0F801E40FF51F3F96A6
S1130360EE0FFF1FEA0FFB1F118210824F5F5F4FDA
S11303704830510599F643C313966C91139770E076
S113038040E050E08C01E4E0000F111FEA95E1F732
S1130390F901042E02C0EE0FFF1F0A94E2F7E623D0
S11303A0F723EF2B51F0F801E40FF51F3F96EE0F02
S11303B0FF1FEA0FFB1F31832083FB01042E02C0C1
S11303C0F595E7950A94E2F7E0FD0AC0F801E40F19
S11303D0F51F3F96EE0FFF1FEA0FFB1F11821082DD
S11303E04F5F5F4F4830510599F609C314966C91DD
S11303F0149770E040E050E08C01E4E0000F111F1E
S1130400EA95E1F7F901042E02C0EE0FFF1F0A94EA
S1130410E2F7E623F723EF2B51F0F801E40FF51F81
S11304203F96EE0FFF1FEA0FFB1F31832083FB0172
S1130430042E02C0F595E7950A94E2F7E0FD0AC0A0
S1130440F801E40FF51F3F96EE0FFF1FEA0FFB1FA5
S1130450118210824F5F5F4F4830510599F6CFC229
S113046015966C91159770E040E050E07C0114E023
S1130470EE0CFF1C1A95E1F7F901042E02C0EE0FF1
S1130480FF1F0A94E2F7E623F72301E010E01E16AB
S11304901F0614F000E010E0F701E40FF51F3F968B
S11304A0EE0FFF1FEA0FFB1F118300834F5F5F4FA7
S11304B04830510509F7A3C216966C91169770E05F
S11304C040E050E08C01E4E0000F111FEA95E1F7F1
S11304D0F901042E02C0EE0FFF1F0A94E2F7E6238F
S11304E0F723EF2B51F0F801E40FF51F3F96EE0FC1
S11304F0FF1FEA0FFB1F31832083FB01042E02C080
S1130500F595E7950A94E2F7E0FD0AC0F801E40FD7
S1130510F51F3F96EE0FFF1FEA0FFB1F118210829B
S11305204F5F5F4F4830510599F669C217966C9139
S1130530179770E040E050E08C01E4E0000F111FD9
S1130540EA95E1F7F901042E02C0EE0FFF1F0A94A9
S1130550E2F7E623F723EF2B51F0F801E40FF51F40
S11305603F96EE0FFF1FEA0FFB1F31832083FB0131
S1130570042E02C0F595E7950A94E2F7E0FD0AC05F
S1130580F801E40FF51F3F96EE0FFF1FEA0FFB1F64
S1130590118210824F5F5F4F4830510599F62FC288
S11305A018966C91189770E040E050E08C01E4E0FC
S11305B0000F111FEA95E1F7F901042E02C0EE0FB6
S11305C0FF1F0A94E2F7E623F723EF2B51F0F8011B
S11305D0E40FF51F3F96EE0FFF1FEA0FFB1F318359
S11305E02083FB01042E02C0F595E7950A94E2F7F7
S11305F0E0FD0AC0F801E40FF51F3F96EE0FFF1F60
S1130600EA0FFB1F118210824F5F5F4F4830510584
S113061099F6F5C119966C91199770E040E050E095
S11306208C01E4E0000F111FEA95E1F7F901042EB3
S113063002C0EE0FFF1F0A94E2F7E623F723EF2B25
S113064051F0F801E40FF51F3F96EE0FFF1FEA0F7C
S1130650FB1F31832083FB01042E02C0F595E7952F
S11306600A94E2F7E0FD0AC0F801E40FF51F3F9693
S1130670EE0FFF1FEA0FFB1F118210824F5F5F4FC7
S11306804830510599F6BBC11A966C911A9770E0DF
S113069040E050E08C01E4E0000F111FEA95E1F71F
S11306A0F901042E02C0EE0FFF1F0A94E2F7E623BD
S11306B0F723EF2B51F0F801E40FF51F3F96EE0FEF
S11306C0FF1FEA0FFB1F31832083FB01042E02C0AE
S11306D0F595E7950A94E2F7E0FD0AC0F801E40F06
S11306E0F51F3F96EE0FFF1FEA0FFB1F11821082CA
S11306F04F5F5F4F4830510599F681C11B966C914D
S11307001B9770E040E050E08C01E4E0000F111F03
S1130710EA95E1F7F901042E02C0EE0FFF1F0A94D7
S1130720E2F7E623F723EF2B51F0F801E40FF51F6E
S11307303F96EE0FFF1FEA0FFB1F31832083FB015F
S1130740042E02C0F595E7950A94E2F7E0FD0AC08D
S1130750F801E40FF51F3F96EE0FFF1FEA0FFB1F92
S1130760118210824F5F5F4F4830510599F647C19F
S11307701C966C911C9770E040E050E08C01E4E022
S1130780000F111FEA95E1F7F901042E02C0EE0FE4
S1130790FF1F0A94E2F7E623F723EF2B51F0F80149
S11307A0E40FF51F3F96EE0FFF1FEA0FFB1F318387
S11307B02083FB01042E02C0F595E7950A94E2F725
S11307C0E0FD0AC0F801E40FF51F3F96EE0FFF1F8E
S11307D0EA0FFB1F118210824F5F5F4F48305105B3
S11307E099F60DC11D966C911D9770E040E050E0A4
S11307F08C01E4E0000F111FEA95E1F7F901042EE2
S113080002C0EE0FFF1F0A94E2F7E623F723EF2B53
S113081051F0F801E40FF51F3F96EE0FFF1FEA0FAA
S1130820FB1F31832083FB01042E02C0F595E7955D
S11308300A94E2F7E0FD0AC0F801E40FF51F3F96C1
S1130840EE0FFF1FEA0FFB1F118210824F5F5F4FF5
S11308504830510599F6D3C01E966C911E9770E0EE
S113086040E050E08C01E4E0000F111FEA95E1F74D
S1130870F901042E02C0EE0FFF1F0A94E2F7E623EB
S1130880F723EF2B51F0F801E40FF51F3F96EE0F1D
S1130890FF1FEA0FFB1F31832083FB01042E02C0DC
S11308A0F595E7950A94E2F7E0FD0AC0F801E40F34
S11308B0F51F3F96EE0FFF1FEA0FFB1F11821082F8
S11308C04F5F5F4F4830510599F699C01F966C9160
S11308D01F9770E040E050E08C01E4E0000F111F2E
S11308E0EA95E1F7F901042E02C0EE0FFF1F0A9406
S11308F0E2F7E623F723EF2B51F0F801E40FF51F9D
S11309003F96EE0FFF1FEA0FFB1F31832083FB018D
S1130910042E02C0F595E7950A94E2F7E0FD0AC0BB
S1130920F801E40FF51F3F96EE0FFF1FEA0FFB1FC0
S1130930118210824F5F5F4F4830510599F65FC0B6
S1130940FC01319695E0EE0FFF1F9A95E1F7EA0F4F
S1130950FB1F31832083FD01EC0FF11D8489CF5FE0
S113096081114BCC8FE0FD01EF5DFE4F8083329708
S1130970D080ED01659620E030E008E810E041E029
S113098050E0D21609F447C07801022E02C0F59453
S1130990E7940A94E2F780E090E0B901E4E0660F9E
S11309A0771FEA95E1F7FA01082E02C0EE0FFF1F48
S11309B00A94E2F7EE21FF21EF2B61F0FB01E80F2F
S11309C0F91FE15BFF4FEE0FFF1FEA0FFB1F51837F
S11309D040830BC0FB01E80FF91FE15BFF4FEE0FF3
S11309E0FF1FEA0FFB1F11821082019688309105C8
S11309F0D1F689912F5F3F4F8111C3CF0CC0FC0109
S1130A00319685E0EE0FFF1F8A95E1F7EA0FFB1F91
S1130A1011821082A0CFDF91CF911F910F91FF908F
S1130A20EF90DF90089560E0262F30E080914F0230
S1130A3090E0281739070CF045C02E9840E050E0AC
S1130A40D90194E0AA0FBB1F9A95E1F78091500257
S1130A5090E084179507A0F0FD01E40FF51FEE0F59
S1130A60FF1FE253FE4F80819181892B11F02D9A53
S1130A7001C02D982F9A2F982D984F5F5F4FE6CF86
S1130A8040E050E0E4E0220F331FEA95E1F78417D9
S1130A909507A8F0F901E40FF51FEE0FFF1FE25BC5
S1130AA0FE4F0190F081E02DEF2B11F02D9A01C043
S1130AB02D982F9A2F982D984F5F5F4FE8CF2E9A3D
S1130AC06F5FB2CF0895833051F462E572E084E43D
S1130AD091E00E94BA0880E391E00E94F200109233
S1130AE02F0110922E01089520912E0130912F0193
S1130AF0853221F0F901EE5AFD4F80832F5F3F4F7D
S1130B0030932F0120932E010895AF92BF92CF927C
S1130B10DF92EF92FF920F931F93CF93DF936A01BB
S1130B207B018C01C0E0D0E0CE01A0E0B0E08C15E8
S1130B309D05AE05BF05B0F45801F80180818A30E7
S1130B4031F440E050E0BE018DE00E9474050F5F77
S1130B501F4F40E050E0BE01F50180810E94740502
S1130B602196E2CFDF91CF911F910F91FF90EF90EB
S1130B70DF90CF90BF90AF9008952F923F924F9205
S1130B805F926F927F928F929F92AF92BF92CF9219
S1130B90DF92EF92FF920F931F93CF93DF93CDB722
S1130BA0DEB7C758D1090FB6F894DEBF0FBECDBF6C
S1130BB0C957DF4F8883C758D040EF967FAF6EAFD9
S1130BC0EF975A01EF96EEADFFADEF978081882342
S1130BD009F449C240E050E0BA018F0181918532A5
S1130BE079F4EF968EAD9FADEF970E948505D801FD
S1130BF08C91853261F0EF961FAF0EAFEF97E2CF85
S1130C00882379F34F5F5F4F6F4F7F4FE6CFF80133
S1130C10319610E2C12CD12C76019F012F5F3F4FFA
S1130C20EF963FAF2EAFEF979081943609F4ABC0A7
S1130C3030F59A3350F4903308F04CC0953209F4EF
S1130C4001C29E3209F44EC003C2933609F000C2B9
S1130C50150134E0230E311CF50180819181A281BC
S1130C60B381E9968CAF9DAFAEAFBFAFE99741E0DA
S1130C7050E060E070E0CE018B589F4FE0C19337A5
S1130C8009F4A9C030F49636E9F1993609F47BC029
S1130C90DFC1953709F4D1C0983709F0D9C11501DE
S1130CA0F4E02F0E311CF50180819181A281B38182
S1130CB0E9968CAF9DAFAEAFBFAFE997ED961CAE92
S1130CC01DAE1EAE1FAEED9790E1492E512C612C46
S1130CD0712CC9C0903331F4C114D104E104F1047E
S1130CE009F410E3892F90E0C097092E000CAA0B99
S1130CF0BB0BC80ED91EEA1EFB1EEF96EEADFFAD70
S1130D00EF978BCF21E030E030932D0120932C011D
S1130D10150134E0230E311CD50113968C911397E1
S1130D208F9312968C9112978F9311968C911197A1
S1130D308F938C918F93E9E0F1E0FF93EF9341E07F
S1130D4050E04C0F5D1F5F934F930E94C10881E0F8
S1130D5090E08C0F9D1F9F938F93AFE0B1E0BF9302
S1130D60AF93C957DF4FF881C758D040FF930E9413
S1130D704D0810922D0110922C010FB6F894DEBF8D
S1130D800FBECDBF6EC1150134E0230E311CF50139
S1130D9080819181A281B381B7FF58C0B095A0959D
S1130DA0909581959F4FAF4FBF4FE9968CAF9DAF04
S1130DB0AEAFBFAFE99721E030E040E050E0ED9600
S1130DC02CAF3DAF4EAF5FAFED972AE0422E512CD2
S1130DD0612C712C48C0150132E0230E311CD50161
S1130DE08C9111969C91FC01812C912C54012191A0
S1130DF0222331F0BFEF8B1A9B0AAB0ABB0AF7CF51
S1130E00B501A4010E9485058C149D04AE04BF04A1
S1130E1008F027C1C818D908EA08FB0841E050E0E7
S1130E2060E070E082E191E00E948505E1E0CE1A85
S1130E30D108E108F10891F714C11501F4E02F0E6F
S1130E40311CF50180819181A281B381E9968CAF37
S1130E509DAFAEAFBFAFE997ED961CAE1DAE1EAE13
S1130E601FAEED97B2CFE9962CAD3DAD4EAD5FAD63
S1130E70E997CD57DF4F288339834A835B83C3586F
S1130E80D040812C912C54018394A5019401C30179
S1130E90B2010E946808C158DF4F688379838A834E
S1130EA09B83CF57D040CD57DF4F288139814A816A
S1130EB05B81C358D040261737074807590758F4B1
S1130EC0ED968CAD9DADAEADBFADED97892B8A2B64
S1130ED08B2B01F53FC0C158DF4F688179818A812E
S1130EE09B81CF57D040A30192010E9478088216BB
S1130EF09306A406B50621F731E0C31AD108E10828
S1130F00F108C158DF4F88809980AA80BB80CF57F1
S1130F10D040BBCF91E0C91AD108E108F1081033E1
S1130F2079F4ADE2A696AFAFA697ED961CAE1DAED2
S1130F301EAE1FAEED9741E050E060E070E00DC0E2
S1130F4021E030E040E050E0ED962CAF3DAF4EAFF5
S1130F505FAFED9740E050E0BA01D701C6010297B8
S1130F60A109B1090E97A105B105D8F49601215044
S1130F70310980E090E0FC01E40FF51FA5E6B0E044
S1130F80AC0FBD1FEA0FFB1F10830196281739070A
S1130F9091F74C0D5D1D6E1D7F1D41505109610976
S1130FA07109ED968CAD9DADAEADBFADED97892BBE
S1130FB08A2B8B2B61F0E5E6F0E0EC0FFD1FE40FCC
S1130FC0F51F9DE290834F5F5F4F6F4F7F4F6A0124
S1130FD07B0181149104A104B10461F105E610E0E0
S1130FE00C0F1D1F0C0D1D1DCD57DF4F688179811E
S1130FF08A819B81C358D040A50194010E9478083E
S1131000CA01B901A30192010E947808FB01EC5EB8
S1131010FE4F8081D8018C93C501B401A3019201D4
S11310200E94780849015A01BFEFCB1ADB0AEB0A88
S1131030FB0ACFCFB701A601CE018B599F4F0E9467
S113104085050FC041E050E060E070E0CF0106C0CC
S113105045E050E060E070E085E291E00E948505A3
S113106015015101AFCDC957DF4F0FB6F894DEBF5C
S11310700FBECDBFDF91CF911F910F91FF90EF90E5
S1131080DF90CF90BF90AF909F908F907F906F90A4
S11310905F904F903F902F9008951F93CF93DF93CD
S11310A0CDB7DEB71E81AE01475F5F4F6F81788594
S11310B0812F0E94BD0580912C0190912D01892BD7
S11310C019F4812F0E946305DF91CF911F91089538
S11310D0DB018F939F930E94A008BF91AF91A29FC1
S11310E0800D911DA39F900DB29F900D1124089522
S11310F0A1E21A2EAA1BBB1BFD010DC0AA1FBB1F18
S1131100EE1FFF1FA217B307E407F50720F0A21B89
S1131110B30BE40BF50B661F771F881F991F1A94F6
S113112069F760957095809590959B01AC01BD0120
S1131130CF010895EE0FFF1F0590F491E02D09945F
S11311400E94AB08A59F900DB49F900DA49F800DA5
S1131150911D11240895A29FB001B39FC001A39FC4
S1131160700D811D1124911DB29F700D811D1124DC
S1131170911D0895FB01DC0101900D920020E1F71F
S11311800895AEE0B0E0E7ECF8E00C94820B0D8932
S11311901E8986E08C831A8309838FEF9FE79E83E1
S11311A08D83AE01475E5F4F6F89788DCE010196C6
S11311B00E94E308EF81F885E00FF11F10822E965C
S11311C0E4E00C949E0BABE0B0E0E9EEF8E00C94A4
S11311D0740B6C017B018A01FC01178216828381E6
S11311E081FFCCC1CE0101963C01F6019381F70148
S11311F093FD859193FF81917F01882309F4BAC1FE
S1131200853239F493FD859193FF81917F01853275
S113121029F4B60190E00E94DA0AE7CF912C212C40
S1131220312CFFE1F315D8F08B3279F038F48032A9
S113123079F08332A1F4232D20611DC08D3261F039
S1131240803369F4232D216016C0832D8260382EEB
S1131250E32DE4603E2E2AC0F32DF8601DC037FC58
S11312602DC020ED280F2A3040F08E32B9F436FC20
S113127081C1232D2064322E19C036FE06C08AE0B7
S1131280989E200D1124922E11C0EAE02E9E200D6E
S11312901124222EF32DF0623F2E08C08C3621F447
S11312A0832D8068382E02C0883641F4F70193FDFF
S11312B0859193FF81917F018111B3CF982F9F7DF9
S11312C09554933028F40C5F1F4F9FE399830DC00E
S11312D0833631F0833771F0833509F059C021C06A
S11312E0F801808189830E5F1F4F88248394912C99
S11312F0530113C02801F2E04F0E511CF801A080E5
S1131300B18036FE03C0692D70E002C06FEF7FEF3D
S1131310C5010E94CF0A4C018201F32DFF773F2EB5
S113132016C0280122E0420E511CF801A080B180B1
S113133036FE03C0692D70E002C06FEF7FEFC50178
S11313400E94C40A4C01F32DF0683F2E820133FC45
S11313501BC0822D90E088169906B0F4B60180E295
S113136090E00E94DA0A2A94F4CFF50137FC8591C3
S113137037FE81915F01B60190E00E94DA0A2110E4
S11313802A9421E0821A91088114910471F7E8C02B
S1131390843611F0893641F5F80137FE07C06081C3
S11313A07181828193810C5F1F4F08C060817181BC
S11313B0072E000C880B990B0E5F1F4FF32DFF7641
S11313C03F2E97FF09C090958095709561957F4F4A
S11313D08F4F9F4FF0683F2E2AE030E0A3010E9418
S11313E0160B882E861845C0853731F4232D2F7EA1
S11313F0B22E2AE030E025C0932D997FB92E8F3686
S1131400C1F018F4883579F0B5C0803719F0883701
S113141021F0B0C0E92FE061BE2EB4FE0DC0FB2D5B
S1131420F460BF2E09C034FE0AC0292F2660B22EF4
S113143006C028E030E005C020E130E002C020E131
S113144032E0F801B7FE07C0608171818281938127
S11314500C5F1F4F06C06081718180E090E00E5FD9
S11314601F4FA3010E94160B882E8618FB2DFF77B1
S11314703F2E36FE0DC0232D2E7FA22E891458F444
S113148034FE0BC032FC09C0832D8E7EA82E05C00D
S1131490B82CA32C03C0B82C01C0B92CA4FE0FC0D7
S11314A0FE01E80DF11D8081803321F49A2D997E8F
S11314B0A92E09C0A2FE06C0B394B39404C08A2D19
S11314C0867809F0B394A3FC11C0A0FE06C0B21440
S11314D088F4280C922C9B180EC0B21460F4B60148
S11314E080E290E00E94DA0AB394F7CFB21418F4C1
S11314F02B1802C0982C212CA4FE10C0B60180E346
S113150090E00E94DA0AA2FE17C0A1FC03C088E79B
S113151090E002C088E590E0B6010CC08A2D867880
S113152059F0A1FE02C08BE201C080E2A7FC8DE26B
S1131530B60190E00E94DA0A891438F4B60180E317
S113154090E00E94DA0A9A94F7CF8A94F301E80DA6
S1131550F11D8081B60190E00E94DA0A8110F5CF76
S1131560222009F442CEB60180E290E00E94DA0A19
S11315702A94F6CFF6018681978102C08FEF9FEF00
S11315802B96E2E10C94900BFC01059061507040A5
S11315900110D8F7809590958E0F9F1F0895FC0138
S11315A06150704001900110D8F7809590958E0F8E
S11315B09F1F08950F931F93CF93DF93FB01238104
S11315C021FD03C08FEF9FEF2CC022FF16C0468180
S11315D05781248135814217530744F4A081B18196
S11315E09D012F5F3F4F318320838C932681378168
S11315F02F5F3F4F3783268314C08B01EC01FB011F
S11316000084F185E02D0995892BE1F6D801169621
S11316108D919C911797019617969C938E9316978C
S1131620CE01DF91CF911F910F910895FA01AA275E
S1131630283051F1203181F1E8946F936E7F6E5F11
S11316407F4F8F4F9F4FAF4FB1E03ED0B4E03CD0BF
S1131650670F781F891F9A1FA11D680F791F8A1FA2
S1131660911DA11D6A0F711D811D911DA11D20D009
S113167009F468943F912AE0269F11243019305DC3
S11316803193DEF6CF010895462F4770405D4193B4
S1131690B3E00FD0C9F7F6CF462F4F70405D4A3301
S11316A018F0495D31FD4052419302D0A9F7EACFC9
S11316B0B4E0A6959795879577956795BA95C9F7F8
S11316C000976105710508959B01AC010A2E0694EB
S11316D05795479537952795BA95C9F7620F731FA4
S11316E0841F951FA01D08952F923F924F925F92E1
S11316F06F927F928F929F92AF92BF92CF92DF921E
S1131700EF92FF920F931F93CF93DF93CDB7DEB782
S1131710CA1BDB0B0FB6F894DEBF0FBECDBF099416
S11317202A88398848885F846E847D848C849B846D
S1131730AA84B984C884DF80EE80FD800C811B817B
S1131740AA81B981CE0FD11D0FB6F894DEBF0FBEAA
S10D1750CDBFED010895F894FFCF1A
S113175A25640041410025660025322E32660025A3
S113176A7300200030313233343536373839616208
S10F177A63646566004552524F52000043
S9030000FC
