:100000000C9421010C943E010C943E010C943E0191
:100010000C943E010C943E010C943E010C943E0164
:100020000C943E010C943E010C943E010C943E0154
:100030000C943E010C943E010C943E010C943E0144
:100040000C943E010C943E010C943E010C943E0134
:100050000C943E010C943E010C943E010C943E0124
:100060000C943E010C943E01D80106023602660251
:100070009602C602F602260356038603D504D5046B
:10008000D504D504D504D504D504B603E603160477
:10009000A6044604D504D504D504D504D504D50456
:1000A000D504D504D504D504D504D504D504D50488
:1000B000D50476045106F106510651065106510643
:1000C000510651065106510651065106F106F10638
:1000D000F106F106F106F106F106F106F106F10668
:1000E000F106F106F106F106F106F106F106F10658
:1000F000F106F106F106F106F106F106F106F10648
:10010000F106F106F106F106F106F106F106F10637
:10011000F106F106F106F106F106F106F1065D06BB
:100120009106F1067406F106F1069106F106F10654
:10013000F106F106F106F106F106F106F106BE063A
:100140006E616E00696E660000407A10F35A00A07E
:10015000724E18090010A5D4E80000E87648170090
:1001600000E40B54020000CA9A3B000000E1F505D0
:10017000000080969800000040420F000000A0861A
:1001800001000000102700000000E803000000004C
:100190006400000000000A000000000001000000F0
:1001A00000002C76D888DC674F0823DFC1DFAE590A
:1001B000E1B1B796E5E3E453C63AE651997696E89D
:1001C000E6C28426EB898C9B62ED407C6FFCEFBC21
:1001D0009C9F40F2BAA56FA5F490055A2AF75C934C
:1001E0006B6CF9676DC11BFCE0E40D47FEF520E682
:1001F000B500D0ED902E0300943577050080841E65
:10020000080000204E0A000000C80C333333330FBF
:10021000986E12831141EF8D2114893BE65516CF5C
:10022000FEE6DB18D1844B381BF77C1D901DA4BB68
:10023000E424203284725E228100C9F124ECA1E51D
:100240003D2711241FBECFEFD8E0DEBFCDBF11E0A8
:10025000A0E0B1E0ECE2FCE102C005900D92AA3012
:10026000B107D9F722E0AAE0B1E001C01D92A5399B
:10027000B207E1F70E9440010C94140E0C940000A8
:100280008FEF8AB98FE091E00E946A010F2EFFE3A1
:10029000DF2EF02D0F2EFEE8EF2EF02D0F2EF4E1C5
:1002A000FF2EF02D0BE7C0E0D1E013E0DF92EF92DC
:1002B000FF920F93DF93CF931F930E9417070E9423
:1002C0004A058DB79EB707960FB6F8949EBF0FBE2E
:1002D0008DBFECCFFC0184B1806E84B9DF01A25EDA
:1002E000BE4F81E18C93119684E08C93119687E048
:1002F0008C9311968C938CEF80838CE0818389EDB5
:1003000082838DE983838DE2848385EB858385EF0A
:1003100086838CE187838DEF80878DEB81878DE7E6
:10032000828785EE838780EF848781EF85878CEED7
:1003300086878DEC8787108A08956F927F929F92AF
:10034000AF92BF92CF92DF92EF92FF920F931F93E3
:10035000CF93DF93DC01FC0180E0A12C912C21E004
:10036000EF0194899E3219F0AA2029F002C0982E3C
:10037000A22E9D899C8B8F5F3196863089F7C0E0D5
:1003800021E030E0522F432FD0E0B12C8C2F90E0B1
:10039000FD01E80FF91FE489CE2ED12CF601F0976C
:1003A000E632F10508F001C3EC5CFF4F0C94AC0A97
:1003B000CC90D12C612C712C82959295907F9827AE
:1003C000807F9827B3017901062C02C0EE0CFF1C38
:1003D0000A94E2F7EC20FD20052F142F1E141F04B1
:1003E00014F00D2F1B2D680F791F615F7F4F660F73
:1003F000771F6A0F7B1FFB0111830083FFEF6F1ACA
:100400007F0A68E066167104E9F6CFC21196CC90B7
:100410001197D12C612C712C82959295907F982701
:10042000807F9827B3017901062C02C0EE0CFF1CD7
:100430000A94E2F7EC20FD20052F142F1E141F0450
:1004400014F00D2F1B2D680F791F615F7F4F660F12
:10045000771F6A0F7B1FFB0111830083FFEF6F1A69
:100460007F0A68E066167104E9F69FC21296CC9086
:100470001297D12C612C712C82959295907F9827A0
:10048000807F9827B3017901062C02C0EE0CFF1C77
:100490000A94E2F7EC20FD20052F142F1E141F04F0
:1004A00014F00D2F1B2D680F791F615F7F4F660FB2
:1004B000771F6A0F7B1FFB0111830083FFEF6F1A09
:1004C0007F0A68E066167104E9F66FC21396CC9055
:1004D0001397D12C612C712C82959295907F98273F
:1004E000807F9827B3017901062C02C0EE0CFF1C17
:1004F0000A94E2F7EC20FD20052F142F1E141F0490
:1005000014F00D2F1B2D680F791F615F7F4F660F51
:10051000771F6A0F7B1FFB0111830083FFEF6F1AA8
:100520007F0A68E066167104E9F63FC21496CC9023
:100530001497D12C612C712C82959295907F9827DD
:10054000807F9827B3017901062C02C0EE0CFF1CB6
:100550000A94E2F7EC20FD20052F142F1E141F042F
:1005600014F00D2F1B2D680F791F615F7F4F660FF1
:10057000771F6A0F7B1FFB0111830083FFEF6F1A48
:100580007F0A68E066167104E9F60FC21596CC90F2
:100590001597D12C612C712C82959295907F98277C
:1005A000807F9827B3017901062C02C0EE0CFF1C56
:1005B0000A94E2F7EC20FD20052F142F1E141F04CF
:1005C00014F00D2F1B2D680F791F615F7F4F660F91
:1005D000771F6A0F7B1FFB0111830083FFEF6F1AE8
:1005E0007F0A68E066167104E9F6DFC11696CC90C2
:1005F0001697D12C612C712C82959295907F98271B
:10060000807F9827B3017901062C02C0EE0CFF1CF5
:100610000A94E2F7EC20FD20052F142F1E141F046E
:1006200014F00D2F1B2D680F791F615F7F4F660F30
:10063000771F6A0F7B1FFB0111830083FFEF6F1A87
:100640007F0A68E066167104E9F6AFC11796CC9090
:100650001797D12C612C712C82959295907F9827B9
:10066000807F9827B3017901062C02C0EE0CFF1C95
:100670000A94E2F7EC20FD20052F142F1E141F040E
:1006800014F00D2F1B2D680F791F615F7F4F660FD0
:10069000771F6A0F7B1FFB0111830083FFEF6F1A27
:1006A0007F0A68E066167104E9F67FC11896CC905F
:1006B0001897D12C612C712C82959295907F982758
:1006C000807F9827B3017901062C02C0EE0CFF1C35
:1006D0000A94E2F7EC20FD20052F142F1E141F04AE
:1006E00014F00D2F1B2D680F791F615F7F4F660F70
:1006F000771F6A0F7B1FFB0111830083FFEF6F1AC7
:100700007F0A68E066167104E9F64FC11996CC902D
:100710001997D12C612C712C82959295907F9827F6
:10072000807F9827B3017901062C02C0EE0CFF1CD4
:100730000A94E2F7EC20FD20052F142F1E141F044D
:1007400014F00D2F1B2D680F791F615F7F4F660F0F
:10075000771F6A0F7B1FFB0111830083FFEF6F1A66
:100760007F0A68E066167104E9F61FC11A96CC90FC
:100770001A97D12C612C712C82959295907F982795
:10078000807F9827B3017901062C02C0EE0CFF1C74
:100790000A94E2F7EC20FD20052F142F1E141F04ED
:1007A00014F00D2F1B2D680F791F615F7F4F660FAF
:1007B000771F6A0F7B1FFB0111830083FFEF6F1A06
:1007C0007F0A68E066167104E9F6EFC01B96CC90CC
:1007D0001B97D12C612C712C82959295907F982734
:1007E000807F9827B3017901062C02C0EE0CFF1C14
:1007F0000A94E2F7EC20FD20052F142F1E141F048D
:1008000014F00D2F1B2D680F791F615F7F4F660F4E
:10081000771F6A0F7B1FFB0111830083FFEF6F1AA5
:100820007F0A68E066167104E9F6BFC01C96CC909A
:100830001C97D12C612C712C82959295907F9827D2
:10084000807F9827B3017901062C02C0EE0CFF1CB3
:100850000A94E2F7EC20FD20052F142F1E141F042C
:1008600014F00D2F1B2D680F791F615F7F4F660FEE
:10087000771F6A0F7B1FFB0111830083FFEF6F1A45
:100880007F0A68E066167104E9F68FC01D96CC9069
:100890001D97D12C612C712C82959295907F982771
:1008A000807F9827B3017901062C02C0EE0CFF1C53
:1008B0000A94E2F7EC20FD20052F142F1E141F04CC
:1008C00014F00D2F1B2D680F791F615F7F4F660F8E
:1008D000771F6A0F7B1FFB0111830083FFEF6F1AE5
:1008E0007F0A68E066167104E9F65FC01E96CC9038
:1008F0001E97D12C612C712C82959295907F982710
:10090000807F9827B3017901062C02C0EE0CFF1CF2
:100910000A94E2F7EC20FD20052F142F1E141F046B
:1009200014F00D2F1B2D680F791F615F7F4F660F2D
:10093000771F6A0F7B1FFB0111830083FFEF6F1A84
:100940007F0A68E066167104E9F62FC01F96EC90E6
:100950001F97F12C612C712C82959295907F98278E
:10096000807F9827B3016901062C02C0CC0CDD1CE6
:100970000A94E2F7CE20DF20052F142F1C141D044B
:1009800014F00D2F1B2D680F791F615F7F4F660FCD
:10099000771F6A0F7B1FFB0111830083FFEF6F1A24
:1009A0007F0A68E066167104E9F6CF5FFD01EC0F7F
:1009B000F11D84898111EACCAA2051F0FD0180E269
:1009C000989EE00DF11D112481E090E091838083D9
:1009D0008FE0FD01EF5DFE4F80838D010B5E1F4FA9
:1009E0003297E080F12CC0E0D0E00F2EF1E1CF2E65
:1009F000D12CF02D21E030E0EC16FD06E9F1B60136
:100A00000C2E02C0660F771F0A94E2F780E090E098
:100A1000AE0142955295507F5427407F5427F901EB
:100A2000082E02C0EE0FFF1F0A94E2F7E623F72319
:100A30001E161F0664F4FA01E80FF91FE15BFF4F71
:100A4000EE0FFF1FEA0FFB1F318320830BC0FA015B
:100A5000E80FF91FE15BFF4FEE0FFF1FEA0FFB1FCF
:100A600011821082019688309105C9F6F8018191B2
:100A70008F0121968111C0CFDF91CF911F910F91EE
:100A8000FF90EF90DF90CF90BF90AF909F907F90BE
:100A90006F90089581E08BB91BB880910A01843072
:100AA00011F410920A012E9880E090E0AFE2B2E0DB
:100AB00020910A01FC0130E1239FE00DF11D11247A
:100AC000EE0FFF1FE355FE4F20813181232B11F0E4
:100AD0002D9801C02D9A2F9A2F982D9801962C9120
:100AE00030E02817390720F780E090E0AFE2B2E06D
:100AF00020910A01FC0130E1239FE00DF11D11243A
:100B0000EE0FFF1FE35DFE4F20813181232B11F09B
:100B10002D9A01C02D982F9A2F982D9801962C91DF
:100B200030E02817390720F72E9A80910A018F5F4D
:100B300080930A010895833051F461E372E083E207
:100B400091E00E94EC0B8FE091E00E949D011092D9
:100B50000E0110920D010895853239F0E0910D01DA
:100B6000F0910E01EF5CFD4F808380910D0190911B
:100B70000E01019690930E0180930D0108958F92BE
:100B80009F92AF92BF92EF92FF920F931F93CF93DA
:100B9000DF93411551056105710511F14A015B01B2
:100BA000C82FD92F00E010E07E0188818A3031F40F
:100BB00040E050E0B8018DE00E94AC05219640E095
:100BC00050E0B801F70180810E94AC050F5F1F4F14
:100BD000C801A0E0B0E088159905AA05BB0520F37F
:100BE000DF91CF911F910F91FF90EF90BF90AF9049
:100BF0009F908F9008952F923F924F925F926F92A5
:100C00007F928F929F92AF92BF92CF92DF92EF929C
:100C1000FF920F931F93CF93DF93CDB7DEB76A9701
:100C20000FB6F894DEBF0FBECDBFCB018A016E01B7
:100C300025E0C20ED11C1E01EFE02E0E311CD2C0E9
:100C40002FEF821A920AA20AB20A7F01219125325D
:100C500039F02111F5CF04C07C01812C912C540175
:100C6000B501A4010E94BF05F7018081853209F01A
:100C7000B8C0FFEFEF1AFF0A412C512C32012FEFC1
:100C8000E21AF20AF70131972081822F90E0FC01ED
:100C9000BE97E634F10508F0A4C0E65AFF4F0C9465
:100CA000AC0A822F90E0C097092E000CAA0BBB0B58
:100CB000480E591E6A1E7B1EE2CF580184E0A80E22
:100CC000B11CF80180819181A281B38189839A83CB
:100CD000AB83BC8341E050E060E070E0CE01019660
:100CE0000E94BF0585017DC05801F4E0AF0EB11C24
:100CF000F8016081718182819381810122E042E06B
:100D00000E94E90AF10101900020E9F73197AF0153
:100D10004219530960E070E0C1010E94BF058501DE
:100D200060C05801F4E0AF0EB11CF80180819181E0
:100D30002281338189839A832B833C833F932F9332
:100D40009F938F9384E091E09F938F93DF92CF9254
:100D50000E943A0CF60101900020E9F73197AF01AB
:100D60004C195D0960E070E0C6010E94BF050FB636
:100D7000F894DEBF0FBECDBF850133C0F8013296B7
:100D8000FA8FE98FF80180819181FC0101900020A8
:100D9000E9F73197AF01481B590B60E070E00E9402
:100DA000BF0584149504A604B704B0F44818590884
:100DB0006A087B08A1F041E050E060E070E087E065
:100DC00091E00E94BF05F1E04F1A510861087108D7
:100DD00091F7098D1A8D05C0098D1A8D02C0098DF4
:100DE0001A8DC701FC012081222341F0253209F42C
:100DF00033CF3196812C912C540122CF6A960FB6B5
:100E0000F894DEBF0FBECDBFDF91CF911F910F9140
:100E1000FF90EF90DF90CF90BF90AF909F908F901A
:100E20007F906F905F904F903F902F900895CF9359
:100E3000DF93CDB7DEB7AE01485F5F4F6E817F8134
:100E40008D810E94FB0580910B0190910C01892BF3
:100E500019F48D810E949B05DF91CF910895A0E147
:100E6000B0E0E5E3F7E00C94B20A7C011B016A01F3
:100E7000FC0117821682838181FF44C39E012F5F8C
:100E80003F4F3901F7019381F10193FD859193FF64
:100E900081911F01882309F431C3853239F493FD10
:100EA000859193FF81911F01853239F4B70190E05C
:100EB0000E94FE0B56016501E5CF10E0512C912CEC
:100EC000FFE1F915D8F08B3279F038F4803279F0FF
:100ED0008332A1F4F92DF0612EC08D3261F08033A0
:100EE00069F4292D21602DC0392D3260932E892D72
:100EF0008460982E2AC0E92DE86015C097FC2DC0AB
:100F000020ED280F2A3088F496FE06C03AE0139FA1
:100F1000200D1124122F19C08AE0589E200D112493
:100F2000522EE92DE0629E2E10C08E3231F496FCD6
:100F3000E5C2F92DF0649F2E08C08C3621F4292DCE
:100F40002068922E02C0883641F4F10193FD85910C
:100F500093FF81911F018111B3CF9BEB980F9330C9
:100F600020F4992D9061805E07C09BE9980F933023
:100F700008F066C1992D9F7E96FF16E09F73992E0B
:100F8000853619F49064992E08C0863621F4392FDD
:100F90003068932E02C01111115097FE07C01C3308
:100FA00050F444244394410E27E00BC0183038F02D
:100FB00027E017E005C027E09CE3492E02C0212F5F
:100FC000412C560184E0A80EB11CF60160817181AC
:100FD00082819381042DA3010E94090B6C01F98188
:100FE000FC87F0FF02C0F3FF06C091FC06C092FE32
:100FF00006C000E205C00DE203C00BE201C000E044
:101000008C858C7019F001115AC29BC297FE10C0DA
:101010004C0CFC85F4FF04C08A81813309F44A94A6
:10102000141474F528E0241578F588E0482E2CC0B7
:1010300096FC2AC0812F90E08C159D059CF03CEF1A
:10104000C3163FEFD30674F0892D8068982E0AC02E
:10105000E2E0F0E0EC0FFD1FE10FF11D8081803335
:1010600019F411501111F4CF97FE0EC0442443948B
:10107000410E812F90E0C816D9062CF41C1904C02B
:101080004424439401C010E097FE06C01C141D04C4
:1010900034F4C601019605C085E090E002C081E00D
:1010A00090E001110196112331F0212F30E02F5FE4
:1010B0003F4F820F931F252D30E08217930714F4C2
:1010C000581A01C0512C892D897049F4552039F0E6
:1010D000B70180E290E00E94FE0B5A94F7CF002304
:1010E00029F0B701802F90E00E94FE0B93FC09C00D
:1010F000552039F0B70180E390E00E94FE0B5A942E
:10110000F7CF97FE4CC04601D7FE02C0812C912C30
:10111000C60188199909F301E80FF91FFE87ED87C9
:10112000960124193109388B2F87012F10E0119572
:10113000019511093FEF8316930629F4B7018EE25A
:1011400090E00E94FE0BC814D9044CF08F8598895A
:101150008815990524F4ED85FE85818101C080E321
:10116000F1E08F1A91082D853E852F5F3F4F3E8716
:101170002D87801691062CF0B70190E00E94FE0B9F
:10118000D9CFC814D90441F49A81963320F4953309
:1011900019F43C8534FF81E3B70190E04EC08A81A9
:1011A000813319F09C859F7E9C87B70190E00E9457
:1011B000FE0B111105C094FC18C085E690E017C025
:1011C000B7018EE290E00E94FE0B1E5F82E001E01C
:1011D000080FF301E80FF11D8081B70190E00E9434
:1011E000FE0B802F0113F3CFE6CF85E490E0B7012B
:1011F0000E94FE0BD7FC06C0C114D10441F4EC855B
:10120000E4FF05C0D194C194D1088DE201C08BE206
:10121000B70190E00E94FE0B80E32AE0C216D104E1
:101220002CF08F5FFAE0CF1AD108F7CFB70190E02A
:101230000E94FE0BB701C601C0960E94FE0B54C16E
:10124000833631F0833779F0833509F056C020C0FA
:10125000560132E0A30EB11CF6018081898301E0C2
:1012600010E0630112C05601F2E0AF0EB11CF601AE
:10127000C080D18096FE03C0612F70E002C06FEF86
:101280007FEFC6010E94F30B8C01F92DFF7714C08C
:10129000560122E0A20EB11CF601C080D18096FE5C
:1012A00003C0612F70E002C06FEF7FEFC6010E94A4
:1012B000E10B8C01F92DF0689F2EF3FD1AC0852DEE
:1012C00090E008171907A8F4B70180E290E00E94A7
:1012D000FE0B5A94F4CFF60197FC859197FE81910D
:1012E0006F01B70190E00E94FE0B51105A9401501B
:1012F00011090115110579F7F7C0843611F0893607
:1013000061F5560197FE09C024E0A20EB11CF6015A
:1013100060817181828193810AC0F2E0AF0EB11CBD
:10132000F60160817181072E000C880B990BF92D55
:10133000FF769F2E97FF09C09095809570956195D7
:101340007F4F8F4F9F4FF0689F2E2AE030E0A30120
:101350000E945C0CC82EC6183FC0092D853721F4A9
:101360000F7E2AE030E01DC0097F8F3691F018F41F
:10137000883559F0C3C0803719F0883711F0BEC0E6
:10138000006104FF09C0046007C094FE08C0066045
:1013900006C028E030E005C020E130E002C020E1D6
:1013A00032E0560107FF09C084E0A80EB11CF60127
:1013B000608171818281938108C0F2E0AF0EB11C1F
:1013C000F6016081718180E090E0A3010E945C0CD5
:1013D000C82EC6180F77902E96FE0BC0092D0E7FD3
:1013E000C11650F494FE0AC092FC08C0092D0E7E6E
:1013F00005C0DC2C092D03C0DC2C01C0D12E04FF5C
:101400000DC0FE01EC0DF11D8081803311F4097EC9
:1014100009C002FF06C0D394D39404C0802F8678FD
:1014200009F0D39403FD11C000FF06C01C2DD51494
:1014300080F4150D1D190DC0D51458F4B70180E2C4
:1014400090E00E94FE0BD394F7CFD51410F45D18F2
:1014500001C0512C04FF10C0B70180E390E00E944E
:10146000FE0B02FF17C001FD03C088E790E002C039
:1014700088E590E0B7010CC0802F867859F001FF15
:1014800002C08BE201C080E207FD8DE2B70190E06F
:101490000E94FE0BC11638F4B70180E390E00E9471
:1014A000FE0B1150F7CFCA94F301EC0DF11D8081B2
:1014B000B70190E00E94FE0BC110F5CF15C0F4E01B
:1014C000F51560F584E0581A93FE1FC0011127C07E
:1014D0002C8523FF2AC000E411E0392D3071932EB2
:1014E000F8018491811124C0552009F4E4CCB7019E
:1014F00080E290E00E94FE0B5A94F6CFF7018681BD
:10150000978126C08FEF9FEF23C0B70180E290E064
:101510000E94FE0B5A945110F8CFD8CF512CB7012E
:10152000802F90E00E94FE0BD3CF04E411E0D5CFD2
:1015300091108052B70190E00E94FE0B0F5F1F4F89
:10154000CFCF23E0251510F483E0BDCF512CC0CFC1
:101550006096E2E10C94CE0AEE0FFF1F0590F49125
:10156000E02D09942F923F924F925F926F927F925B
:101570008F929F92AF92BF92CF92DF92EF92FF92A3
:101580000F931F93CF93DF93CDB7DEB7CA1BDB0B4F
:101590000FB6F894DEBF0FBECDBF09942A883988F4
:1015A00048885F846E847D848C849B84AA84B984FB
:1015B000C884DF80EE80FD800C811B81AA81B98107
:1015C000CE0FD11D0FB6F894DEBF0FBECDBFED011B
:1015D0000895EF920F931F93CF93DF93E80147FD98
:1015E00002C034E001C034E1042E000C550B57FF5B
:1015F00003C0519541955109E32E022F242FAE01CE
:101600000E94BA0CCE01DF91CF911F910F91EF9004
:101610000895283008F027E03327DA01990F311DAB
:1016200087FD916000966105710539F432602E5F87
:101630003D9330E32A95E1F708959F3F30F08038DD
:101640007105610509F03C5F3C5F3D93913008F006
:101650008068911DDF93CF931F930F93FF92EF92BA
:10166000192F987F9695E92F96959695E90FFF2764
:10167000EE55FE4F99273327EE24FF24A701E701FB
:1016800005900894079428F4360FE71EF81E491FAA
:10169000511D660F771F881F991F0694A1F70590AB
:1016A000079428F4E70EF81E491F561FC11D770F37
:1016B000881F991F661F0694A1F70590079428F4C8
:1016C000F80E491F561FC71FD11D880F991F661F8F
:1016D000771F0694A1F70590079420F4490F561F31
:1016E000C71FD81F990F661F771F881F0694A9F779
:1016F00084911095177041F0D695C79557954795E9
:10170000F794E7941A95C1F7E8E4F1E0689415902E
:10171000159135916591959105907FE27395E1184A
:10172000F10A430B560BC90BD009C0F7E10CF11EAF
:10173000431F561FC91FD01D7EF4703311F48A95C4
:10174000E6CFE894015030F0080F0AF400270217A2
:1017500008F4202F2395022F7A3328F079E37D9324
:101760002A95E9F710C07D932A9589F606949795F6
:101770006795379517951794E118F10A430B560BA7
:10178000C90BD00998F023957E9173957A3308F0B0
:1017900070E37C932013B8F77E9170617D9330F0F5
:1017A000839571E37D9370E32A95E1F71124EF901F
:1017B000FF900F911F91CF91DF91992787FD909511
:1017C0000895FC010590615070400110D8F7809594
:1017D00090958E0F9F1F0895FB01DC0101900D92E3
:1017E0000020E1F70895FC01615070400190011064
:1017F000D8F7809590958E0F9F1F08950F931F9394
:10180000CF93DF93FB01238121FD03C08FEF9FEF77
:101810002CC022FF16C04681578124813581421792
:10182000530744F4A081B1819D012F5F3F4F318365
:1018300020838C93268137812F5F3F4F3783268308
:1018400014C08B01EC01FB010084F185E02D0995AA
:10185000892BE1F6D80116968D919C9117970196E8
:1018600017969C938E931697CE01DF91CF911F917F
:101870000F910895AEE0B0E0E0E4FCE00C94C00A03
:101880000D891E8986E08C831A8309838FEF9FE779
:101890009E838D83AE01475E5F4F6F89788DCE0149
:1018A00001960E942F07EF81F885E00FF11F10824B
:1018B0002E96E4E00C94DC0AFA01AA27283051F1B4
:1018C000203181F1E8946F936E7F6E5F7F4F8F4F71
:1018D0009F4FAF4FB1E03ED0B4E03CD0670F781FD0
:1018E000891F9A1FA11D680F791F8A1F911DA11DB5
:1018F0006A0F711D811D911DA11D20D009F46894EE
:101900003F912AE0269F11243019305D3193DEF695
:10191000CF010895462F4770405D4193B3E00FD04B
:10192000C9F7F6CF462F4F70405D4A3318F0495D36
:1019300031FD4052419302D0A9F7EACFB4E0A69519
:101940009795879577956795BA95C9F7009761053B
:10195000710508959B01AC010A2E06945795479591
:1019600037952795BA95C9F7620F731F841F951F86
:10197000A01D0895A9E0B0E0E0ECFCE00C94B80AEA
:101980006A01122FB02E2BE3201720F0FF24F394CE
:10199000F00E02C02CE3F22E0F2D27E0AE014F5FB8
:1019A0005F4F0E94090BBC014981842F89708130EF
:1019B00031F0E1FC06C0E0FE06C090E205C09DE209
:1019C00003C09BE201C090E05E2D507143FF3CC01C
:1019D000911102C083E001C084E0811718F4212F27
:1019E000281B01C020E051110BC0F601822F30E20C
:1019F000882319F031938150FBCFC20ED11C20E017
:101A0000992329F0D6019C93F60131966F01C60106
:101A10000396E2FE0AC03EE4D6013C9341E41196EF
:101A20004C93119712963C9306C03EE6F601308324
:101A300041E641833283FC01322F40E2332309F433
:101A400042C041933150FACF42FF44C0911102C0CD
:101A500083E001C084E0811718F4212F281B01C006
:101A600020E051110BC0F601822F30E2882319F0DB
:101A700031938150FBCFC20ED11C20E0992329F075
:101A8000D6019C93F60131966F01C6010396E2FEE2
:101A90000BC039E4D6013C933EE411963C93119778
:101AA00036E412963C9307C039E6F60130833EE6F1
:101AB000318336E63283FC01322F40E2332319F0C2
:101AC00041933150FBCFFC01E20FF11D10828EEFEC
:101AD0009FEFA6C021E030E0911102C020E030E08D
:101AE000161617061CF4FB01319602C0E1E0F0E087
:101AF0002E0F3F1FBB2021F0EB2DF0E0319602C0EE
:101B0000E0E0F0E02E0F3F1FE12FF0E02E173F073F
:101B10001CF4121B212F01C020E08E2D887159F476
:101B2000F601822F30E2882319F031938150FBCFE8
:101B3000C20ED11C20E0992329F0D6019C93F60116
:101B400031966F0151110BC0F601822F90E388236B
:101B500019F091938150FBCFC20ED11C20E00F2DC4
:101B6000060F9A81342F307144FF03C0913309F47A
:101B70000150101624F4093018F008E001C001E00B
:101B8000AB0177FF02C040E050E0FB01E41BF50B26
:101B9000A1E0B0E0AC0FBD1FEA0FFB1F8EE2A82E44
:101BA0004B01801A91080B2D10E011950195110938
:101BB0004F3FBFEF5B0721F4D601AC9211966D0148
:101BC000641775072CF08416950614F4818101C002
:101BD00080E3415051093196D60111967D0140179D
:101BE000510724F0D6018C936701E2CF6417750783
:101BF00039F4963320F4953319F4311101C081E39F
:101C0000F6018083F701822F90E2882319F09193E7
:101C10008150FBCFF701E20FF11D108280E090E0D0
:0C1C20002996ECE00C94D40AF894FFCF55
:0A1C2C002566550025640020000025
:00000001FF
