:100000000C9434000C9451000C9451000C94510049
:100010000C9451000C9451000C9451000C9451001C
:100020000C9451000C9451000C9451000C9451000C
:100030000C9451000C9451000C9451000C945100FC
:100040000C9451000C9451000C948A000C945100B3
:100050000C9451000C9451000C9451000C945100DC
:100060000C9451000C94510011241FBECFEFD8E026
:10007000DEBFCDBF11E0A0E0B1E0E4E1F8E002C0F6
:1000800005900D92A633B107D9F721E0A6E3B1E0C0
:1000900001C01D92AB3CB207E1F70E9453000C94E3
:1000A00008040C94000088E391E00E94720088E349
:1000B00091E00E94B90088E391E00E94E700F7CF49
:1000C000CF93C82F8A3019F48DE00E946000E0ECD5
:1000D000F0E0808185FFFDCFC093C60080E090E016
:1000E000CF91089550981092C50029E12093C40043
:1000F00028E92093C10026E02093C20020E031E0EF
:100100003093C8012093C70180589F4FFC01108293
:10011000789408951F920F920FB60F9211248F9327
:100120009F93EF93FF938091B801811119C0909133
:10013000C6009B3769F09D3739F481E08093B801A0
:10014000809136018093B90180913601882344F073
:10015000E82FF0E0E85CFE4F90838F5F80933601DC
:10016000FF91EF919F918F910F900FBE0F901F9075
:100170001895CF93DF93FC01E058FF4F2081222395
:1001800019F1EC013196408150E06EE071E00E947F
:100190001C01892B29F481E0FE01ED57FF4F80837C
:1001A000FE01EF57FF4F408150E066E171E0CE0164
:1001B0000E941C01892B29F481E0FE01EC57FF4FBE
:1001C0008083C058DF4F1882DF91CF910895CF937D
:1001D000DF93EC0180913701FE01ED57FF4FDE0107
:1001E000AC57BF4F9081992371F0809337018EE116
:1001F00091E09F938F930E942A01CD57DF4F188281
:100200000F900F9016C09C91992371F08093370145
:100210008AE291E09F938F930E942A01CC57DF4F8F
:1002200018820F900F9005C08F5F8A30D8F28093AC
:100230003701DF91CF910895FB01DC01415050401F
:1002400030F08D910190801919F40020B9F7881BC6
:10025000990B0895A0E0B0E0E0E3F1E00C94E10335
:10026000AE014B5F5F4FFA0161917191AF018091D7
:10027000C7019091C8010E944001E2E00C94FD0387
:10028000ABE0B0E0E6E4F1E00C94D1036C017B015B
:100290008A01FC0117821682838181FFCCC1CE01C5
:1002A00001963C01F6019381F70193FD859193FF3F
:1002B00081917F01882309F4BAC1853239F493FD15
:1002C000859193FF81917F01853229F4B60190E0F9
:1002D0000E943703E7CF912C212C312CFFE1F3153D
:1002E000D8F08B3279F038F4803279F08332A1F48F
:1002F000232D20611DC08D3261F0803369F4232DE0
:10030000216016C0832D8260382EE32DE4603E2EDE
:100310002AC0F32DF8601DC037FC2DC020ED280F3A
:100320002A3040F08E32B9F436FC81C1232D20648E
:10033000322E19C036FE06C08AE0989E200D112488
:10034000922E11C0EAE02E9E200D1124222EF32DB4
:10035000F0623F2E08C08C3621F4832D8068382E41
:1003600002C0883641F4F70193FD859193FF819196
:100370007F018111B3CF982F9F7D9554933028F43E
:100380000C5F1F4F9FE399830DC0833631F0833795
:1003900071F0833509F059C021C0F801808189834B
:1003A0000E5F1F4F88248394912C530113C02801A2
:1003B000F2E04F0E511CF801A080B18036FE03C060
:1003C000692D70E002C06FEF7FEFC5010E942C0322
:1003D0004C018201F32DFF773F2E16C0280122E049
:1003E000420E511CF801A080B18036FE03C0692D79
:1003F00070E002C06FEF7FEFC5010E9421034C0146
:10040000F32DF0683F2E820133FC1BC0822D90E05B
:1004100088169906B0F4B60180E290E00E94370396
:100420002A94F4CFF50137FC859137FE81915F0165
:10043000B60190E00E94370321102A9421E0821A2D
:1004400091088114910471F7E8C0843611F089365F
:1004500041F5F80137FE07C0608171818281938187
:100460000C5F1F4F08C060817181072E000C880B44
:10047000990B0E5F1F4FF32DFF763F2E97FF09C09C
:1004800090958095709561957F4F8F4F9F4FF06845
:100490003F2E2AE030E0A3010E947303882E8618C5
:1004A00045C0853731F4232D2F7EB22E2AE030E06F
:1004B00025C0932D997FB92E8F36C1F018F4883559
:1004C00079F0B5C0803719F0883721F0B0C0E92F36
:1004D000E061BE2EB4FE0DC0FB2DF460BF2E09C03E
:1004E00034FE0AC0292F2660B22E06C028E030E074
:1004F00005C020E130E002C020E132E0F801B7FEA3
:1005000007C060817181828193810C5F1F4F06C09B
:100510006081718180E090E00E5F1F4FA3010E9417
:100520007303882E8618FB2DFF773F2E36FE0DC0F5
:10053000232D2E7FA22E891458F434FE0BC032FCDA
:1005400009C0832D8E7EA82E05C0B82CA32C03C015
:10055000B82C01C0B92CA4FE0FC0FE01E80DF11D9E
:100560008081803321F49A2D997EA92E09C0A2FEA4
:1005700006C0B394B39404C08A2D867809F0B3946E
:10058000A3FC11C0A0FE06C0B21488F4280C922C63
:100590009B180EC0B21460F4B60180E290E00E9495
:1005A0003703B394F7CFB21418F42B1802C0982C69
:1005B000212CA4FE10C0B60180E390E00E94370316
:1005C000A2FE17C0A1FC03C088E790E002C088E546
:1005D00090E0B6010CC08A2D867859F0A1FE02C0C9
:1005E0008BE201C080E2A7FC8DE2B60190E00E94A0
:1005F0003703891438F4B60180E390E00E94370392
:100600009A94F7CF8A94F301E80DF11D8081B60129
:1006100090E00E9437038110F5CF222009F442CEEA
:10062000B60180E290E00E9437032A94F6CFF601EB
:100630008681978102C08FEF9FEF2B96E2E10C94A9
:10064000ED03FC010590615070400110D8F78095D2
:1006500090958E0F9F1F0895FC016150704001908E
:100660000110D8F7809590958E0F9F1F08950F93D6
:100670001F93CF93DF93FB01238121FD03C08FEFF5
:100680009FEF2CC022FF16C04681578124813581FF
:100690004217530744F4A081B1819D012F5F3F4F62
:1006A000318320838C93268137812F5F3F4F37839F
:1006B000268314C08B01EC01FB010084F185E02D41
:1006C0000995892BE1F6D80116968D919C91179783
:1006D000019617969C938E931697CE01DF91CF913A
:1006E0001F910F910895FA01AA27283051F1203166
:1006F00081F1E8946F936E7F6E5F7F4F8F4F9F4FB6
:10070000AF4FB1E03ED0B4E03CD0670F781F891FF7
:100710009A1FA11D680F791F8A1F911DA11D6A0FC5
:10072000711D811D911DA11D20D009F468943F9178
:100730002AE0269F11243019305D3193DEF6CF0177
:100740000895462F4770405D4193B3E00FD0C9F73D
:10075000F6CF462F4F70405D4A3318F0495D31FDAA
:100760004052419302D0A9F7EACFB4E0A6959795FD
:10077000879577956795BA95C9F7009761057105D3
:1007800008959B01AC010A2E06945795479537951D
:100790002795BA95C9F7620F731F841F951FA01D77
:1007A00008952F923F924F925F926F927F928F9215
:1007B0009F92AF92BF92CF92DF92EF92FF920F93F0
:1007C0001F93CF93DF93CDB7DEB7CA1BDB0B0FB6FA
:1007D000F894DEBF0FBECDBF09942A8839884888B7
:1007E0005F846E847D848C849B84AA84B984C8844D
:1007F000DF80EE80FD800C811B81AA81B981CE0F44
:10080000D11D0FB6F894DEBF0FBECDBFED01089528
:04081000F894FFCF8A
:1008140000000002000000006000000000007B54A3
:1008240041534B317D007B5441534B327D00486131
:100834006C6C6F205441534B310048616C6C6F20D9
:060844005441534B320049
:00000001FF
